:020000040800F2
:1000000000000220A1510008CD110008D311000802
:10001000D9110008DF110008E511000800000000F8
:100020000000000000000000000000003140000857
:10003000EB1100080000000081420008E9420008BE
:10004000F1510008F1510008F1510008F151000888
:10005000F1510008F1510008F1510008F151000878
:10006000F1510008F1510008F1510008F151000868
:10007000F1510008F1510008F1510008F151000858
:10008000F1510008F1510008F1510008F151000848
:10009000F1510008F1510008F1510008F151000838
:1000A000F1510008F1510008F1510008F151000828
:1000B000F1510008F1510008F1510008F151000818
:1000C000F1510008F1510008F1510008F151000808
:1000D000F1510008F1510008F1510008F1510008F8
:1000E000F1510008F1510008F1510008F1510008E8
:1000F000F1510008F1510008F1510008F1510008D8
:10010000F1510008F1510008F1510008F1510008C7
:10011000F1510008F1510008F9110008F1510008EF
:10012000F1510008F1510008F1510008F1510008A7
:10013000F1510008F1510008F1510008F151000897
:10014000F1510008F1510008F1510008F151000887
:10015000F1510008F1510008F1510008F151000877
:10016000F1510008F1510008F1510008F151000867
:10017000F1510008F1510008F151000800000000A1
:08018000F1510008F1510008E3
:1001C00010B5054C237833B9044B13B10448AFF391
:1001D00000800123237010BD54080020000000009F
:1001E000C06D000808B5034B1BB103490348AFF3CA
:1001F000008008BD0000000058080020C06D000805
:1002000053B94AB9002908BF00281CBF4FF0FF317D
:100210004FF0FF3000F074B9ADF1080C6DE904CE79
:1002200000F006F8DDF804E0DDE9022304B07047D1
:100230002DE9F047089D04468E46002B4DD18A4299
:10024000944669D9B2FA82F252B101FA02F3C2F1CC
:10025000200120FA01F10CFA02FC41EA030E94405D
:100260004FEA1C48210CBEFBF8F61FFA8CF708FB7E
:1002700016E341EA034306FB07F199420AD91CEB56
:10028000030306F1FF3080F01F81994240F21C8188
:10029000023E63445B1AA4B2B3FBF8F008FB1033D0
:1002A00044EA034400FB07F7A7420AD91CEB040405
:1002B00000F1FF3380F00A81A74240F207816444D5
:1002C000023840EA0640E41B00261DB1D44000235A
:1002D000C5E900433146BDE8F0878B4209D9002DBE
:1002E00000F0EF800026C5E9000130463146BDE848
:1002F000F087B3FA83F6002E4AD18B4202D38242B2
:1003000000F2F980841A61EB030301209E46002D60
:10031000E0D0C5E9004EDDE702B9FFDEB2FA82F2B5
:10032000002A40F09280A1EB0C014FEA1C471FFA13
:100330008CFE0126200CB1FBF7F307FB131140EAFA
:1003400001410EFB03F0884208D91CEB010103F1C7
:10035000FF3802D2884200F2CB804346091AA4B289
:10036000B1FBF7F007FB101144EA01440EFB00FE5D
:10037000A64508D91CEB040400F1FF3102D2A645C2
:1003800000F2BB800846A4EB0E0440EA03409CE761
:10039000C6F12007B34022FA07FC4CEA030C20FA0E
:1003A00007F401FA06F31C43F9404FEA1C4900FA2E
:1003B00006F3B1FBF9F8200C1FFA8CFE09FB1811AB
:1003C00040EA014108FB0EF0884202FA06F20BD91E
:1003D0001CEB010108F1FF3A80F08880884240F26E
:1003E0008580A8F102086144091AA4B2B1FBF9F0B2
:1003F00009FB101144EA014100FB0EFE8E4508D9AD
:100400001CEB010100F1FF346CD28E456AD9023831
:10041000614440EA0840A0FB0294A1EB0E01A14216
:10042000C846A64656D353D05DB1B3EB080261EB84
:100430000E0101FA07F722FA06F3F1401F43C5E95E
:10044000007100263146BDE8F087C2F12003D84094
:100450000CFA02FC21FA03F3914001434FEA1C47D6
:100460001FFA8CFEB3FBF7F007FB10360B0C43EAC8
:10047000064300FB0EF69E4204FA02F408D91CEB78
:10048000030300F1FF382FD29E422DD90238634476
:100490009B1B89B2B3FBF7F607FB163341EA034116
:1004A00006FB0EF38B4208D91CEB010106F1FF3865
:1004B00016D28B4214D9023E6144C91A46EA00465C
:1004C00038E72E46284605E70646E3E61846F8E6EE
:1004D0004B45A9D2B9EB020864EB0C0E0138A3E737
:1004E0004646EAE7204694E74046D1E7D0467BE718
:1004F000023B614432E7304609E76444023842E790
:10050000704700BF844641EA000313F003036DD136
:10051000403A41D351F8043B40F8043B51F8043BC6
:1005200040F8043B51F8043B40F8043B51F8043BCD
:1005300040F8043B51F8043B40F8043B51F8043BBD
:1005400040F8043B51F8043B40F8043B51F8043BAD
:1005500040F8043B51F8043B40F8043B51F8043B9D
:1005600040F8043B51F8043B40F8043B51F8043B8D
:1005700040F8043B51F8043B40F8043B51F8043B7D
:1005800040F8043B51F8043B40F8043B51F8043B6D
:1005900040F8043B403ABDD2303211D351F8043B0D
:1005A00040F8043B51F8043B40F8043B51F8043B4D
:1005B00040F8043B51F8043B40F8043B103AEDD2BC
:1005C0000C3205D351F8043B40F8043B043AF9D20D
:1005D000043208D0D2071CBF11F8013B00F8013BE0
:1005E00001D30B8803806046704700BF082A13D3ED
:1005F0008B078DD010F003038AD0C3F10403D21A05
:10060000DB071CBF11F8013B00F8013B80D331F838
:10061000023B20F8023B7BE7043AD9D3013A11F8B8
:10062000013B00F8013BF9D20B7803704B78437023
:100630008B78837060467047000000000000000067
:1006400090F800F06DE9024520F007016FF0000C12
:1006500010F0070491F820F040F049804FF00004BA
:100660006FF00700D1E9002391F840F000F1080095
:1006700082FA4CF2A4FA8CF283FA4CF3A2FA8CF3CD
:100680004BBBD1E9022382FA4CF200F10800A4FA34
:100690008CF283FA4CF3A2FA8CF3E3B9D1E9042388
:1006A00082FA4CF200F10800A4FA8CF283FA4CF3BF
:1006B000A2FA8CF37BB9D1E9062301F1200182FA79
:1006C0004CF200F10800A4FA8CF283FA4CF3A2FA7F
:1006D0008CF3002BC6D0002A04BF04301A4612BA8D
:1006E000B2FA82F2FDE8024500EBD2007047D1E990
:1006F000002304F00305C4F100004FEAC50514F01F
:10070000040F91F840F00CFA05F562EA05021CBFEF
:1007100063EA050362464FF00004A9E70000000009
:1007200001F0FF01102A2BDB10F0070F08D010F8A2
:10073000013B013A8B422DD010F0070F42B3F6D1A6
:10074000F0B441EA012141EA014122F007047FF0BF
:1007500000070023F0E80256083C85EA010586EA16
:10076000010685FA47F5A3FA87F586FA47F6A5FA52
:1007700087F68EB9EED1F0BC01F0FF0102F007025E
:1007800032B110F8013B013A83EA010313B1F8D109
:100790000020704701387047002D06BF35460338EA
:1007A000073815F0010F07D1013015F4807F02BF23
:1007B000013015F4C03F0130F0BC0138704700BF74
:1007C00080B485B000AFF860B9607A60FB68074A12
:1007D0001A60BB68064A1A607B6880221A6000BFF4
:1007E0001437BD465DF8047B704700BF70080020D9
:1007F000C4080020B0B596B000AF01F019F900F0C0
:1008000059F8244800F0D2FA00F04AF900F0B0F8A4
:1008100000F0E4F800F018F91F4805F081F81F4BCC
:1008200007F13C041D460FCD0FC495E8070084E88E
:10083000070007F13C030021184603F084FA034641
:10084000174A1360174B07F120041D460FCD0FC444
:1008500095E8070084E8070007F120030021184607
:1008600003F071FA0346104A1360104B3C1D1D46FD
:100870000FCD0FC495E8070084E807003B1D002159
:10088000184603F060FA0346094A136003F054FA6D
:10089000FEE700BF740B0020FC6D00080C6E000822
:1008A000B80B0020286E0008BC0B0020446E000826
:1008B000C00B002080B594B000AF07F120033022B8
:1008C0000021184604F080FF07F10C0300221A6093
:1008D0005A609A60DA601A610023BB60224B1B6C7D
:1008E000214A43F0805313641F4B1B6C03F0805369
:1008F000BB60BB6800237B601C4B1B681B4A43F436
:1009000080431360194B1B6803F480437B607B6852
:1009100002233B620123FB6210233B630023BB6382
:1009200007F12003184601F081FB0346002B01D09C
:1009300000F036FA0F23FB6000233B6100237B614C
:100940000023BB610023FB6107F10C030021184663
:1009500001F0E4FD0346002B01D000F021FA00BFB6
:100960005037BD4680BD00BF0038024000700040D7
:1009700080B500AF174B184A1A60164B4FF48272BD
:100980005A60144B00229A60124B0022DA60114B1D
:1009900000221A610F4B00225A610E4B4FF4007275
:1009A0009A610C4B0022DA610A4B00221A62094B51
:1009B00000225A62074B00229A62064B0A22DA6230
:1009C000044801F0BDFF0346002B01D000F0E8F918
:1009D00000BF80BDC40A00200030014080B500AFD8
:1009E000174B184A1A60164B4FF482725A60144B18
:1009F00000229A60124B0022DA60114B00221A6129
:100A00000F4B00225A610E4B4FF400729A610C4B4F
:100A10000022DA610A4B00221A62094B00225A6254
:100A2000074B00229A62064B0A22DA62044801F060
:100A300087FF0346002B01D000F0B2F900BF80BD54
:100A40001C0B00200038004080B500AF124B134A49
:100A50001A60114B4FF4E1325A600F4B4FF4805241
:100A60009A600D4B4FF40052DA600B4B4FF48062EA
:100A70001A61094B0C225A61074B00229A61064BFE
:100A80000022DA61044802F0FFFC0346002B01D08B
:100A900000F086F900BF80BD740B002000100140FB
:100AA00080B58AB000AF07F1140300221A605A60C3
:100AB0009A60DA601A6100233B61434B1B6B424A28
:100AC00043F080031363404B1B6B03F080033B61D7
:100AD0003B690023FB603C4B1B6B3B4A43F001032B
:100AE0001363394B1B6B03F00103FB60FB680023AE
:100AF000BB60354B1B6B344A43F004031363324B2A
:100B00001B6B03F00403BB60BB6800237B602E4BB0
:100B10001B6B2D4A43F0020313632B4B1B6B03F03B
:100B200002037B607B6800222021284801F064FAE0
:100B300000224FF48051264801F05EFA10237B61B9
:100B40000023BB610023FB6107F114031946214810
:100B500001F0B6F810237B610023BB610023FB6129
:100B600007F114031946194801F0AAF820237B6104
:100B70000123BB610023FB6100233B6207F11403E7
:100B80001946124801F09CF802237B610023BB61E7
:100B90000023FB6107F1140319460D4801F090F89A
:100BA0004FF480537B610123BB610023FB61002371
:100BB0003B6207F114031946054801F081F800BFB4
:100BC0002837BD4680BD00BF003802400008024003
:100BD000000402400000024080B582B000AF78609F
:100BE0004FF47A7003F0FBF8FAE7000080B58AB0A2
:100BF00000AF78600023FB6100233B6200237B6130
:100C00000023BB610023FB6000233B612D4B2E4A78
:100C10001A602C4B2D4A5A602A4B20221A81294BEC
:100C20002B4ADA60274B10221A82264800F064FE15
:100C30000021244800F0A8FC264804F071FE07F1CA
:100C40001C032049184600F059FB1E4800F01CFB0D
:100C500000237B6213E07B6A01337B62FA2003F09E
:100C6000BEF87B6A092B0ADD07F11C0315491846FB
:100C700000F044FB134800F007FB00237B6211489F
:100C800000F021FB034683F00103DBB2002BE2D12D
:100C900007F10C030B49184600F05AFB0E4804F00C
:100CA0003FFEFA2003F09BF807F1140305491846AC
:100CB00000F024FB034800F0E7FAFA2003F08FF875
:100CC000DDE700BFC40B0020C40A0020000802407A
:100CD00000000240606E0008786E000880B588B0A1
:100CE00000AF786000237B610023BB610023FB60C1
:100CF00000233B611E4B1F4A1A601D4B1E4A5A605F
:100D00001B4B4FF480521A81194B1B4ADA60184B67
:100D100002221A82164800F0EFFD0121144800F06B
:100D200033FC08E03521124800F0D3FB0346FB7783
:100D3000FA2003F054F80E4800F0C5FA034683F099
:100D40000103DBB2002BEDD107F10C030849184673
:100D500000F0FEFA07F114030549184600F0CEFA38
:100D6000034800F091FAFA2003F039F8E3E700BFF6
:100D7000F00B00201C0B00200004024080B582B064
:100D800000AF78607B681B68044A934201D100F091
:100D900071FE00BF0837BD4680BD00BF0010004097
:100DA00080B400AF72B600BFFEE7000080B582B02D
:100DB00000AF7860074A7B681360074B1B68986830
:100DC00000230222002104F0C5FD00BF0837BD4604
:100DD00080BD00BF1C0C00201000002080B582B038
:100DE00000AF78607B68002B04DB7B68022B01DCA2
:100DF000012305E004F0FEF9034609221A600023EE
:100E000018460837BD4680BD80B586B000AFF86093
:100E1000B9607A60FB68012B02D0FB68022B11D10C
:100E20000E4B18687B689AB24FF0FF33B96802F036
:100E300078FB0346FB75FB7D002B01D17B6808E046
:100E4000052306E004F0D6F9034609221A604FF0A4
:100E5000FF3318461837BD4680BD00BF1C0C00206C
:100E600080B582B000AF78607B68002B04DB7B68C4
:100E7000022B01DC002306E004F0BCF90346092242
:100E80001A604FF0FF3318460837BD4680BD80B565
:100E900084B000AFF860B9607A6004F0ABF9034643
:100EA00009221A604FF0FF3318461037BD4680BD47
:100EB00080B586B000AFF860B9607A60FB68002B3F
:100EC00010D10E4B18684FF0FF330122B96802F0C1
:100ED000BAFB0346FB75FB7D002B01D1012308E023
:100EE000052306E004F086F9034609221A604FF054
:100EF000FF3318461837BD4680BD00BF1C0C0020CC
:100F000080B582B000AF786039607B68002B08DB69
:100F10007B68022B05DC3B684FF400525A600023CB
:100F200005E004F067F9034609221A600023184619
:100F30000837BD4680BD000080B582B000AF0023F9
:100F40007B60124B5B6C114A43F4804353640F4B3C
:100F50005B6C03F480437B607B6800233B600B4B3E
:100F60001B6C0A4A43F080531364084B1B6C03F05C
:100F700080533B603B6800220F216FF0010000F0BE
:100F800075FE00BF0837BD4680BD00BF0038024077
:100F900080B58CB000AF786007F11C0300221A60A6
:100FA0005A609A60DA601A617B681B68324A934221
:100FB0002CD10023BB61314B5B6C304A43F480532E
:100FC00053642E4B5B6C03F48053BB61BB690023FD
:100FD0007B612A4B1B6B294A43F001031363274BA8
:100FE0001B6B03F001037B617B69E023FB61022340
:100FF0003B6200237B620323BB620523FB6207F194
:101000001C0319461E4800F05BFE31E07B681B683C
:101010001C4A93422CD100233B61184B1B6C174A8E
:1010200043F480431364154B1B6C03F480433B6112
:101030003B690023FB60114B1B6B104A43F002031A
:1010400013630E4B1B6B03F00203FB60FB684FF452
:101050006043FB6102233B6200237B620323BB628C
:101060000523FB6207F11C031946074800F028FE20
:1010700000BF3037BD4680BD00300140003802401F
:1010800000000240003800400004024080B58AB0F1
:1010900000AF786007F1140300221A605A609A606A
:1010A000DA601A617B681B68194A93422BD10023CE
:1010B0003B61184B5B6C174A43F010035364154BAC
:1010C0005B6C03F010033B613B690023FB60114B39
:1010D0001B6B104A43F0020313630E4B1B6B03F0B0
:1010E0000203FB60FB68C0237B610223BB6100231A
:1010F000FB6103233B6207237B6207F1140319465C
:10110000054800F0DDFD00BF2837BD4680BD00BFAB
:1011100000100140003802400004024080B58CB04D
:1011200000AF78600023FB620023BB620022796875
:10113000362000F09BFD362000F0B4FD0023FB605C
:101140001E4B1B6C1D4A43F0100313641B4B1B6C9E
:1011500003F01003FB60FB6807F1100207F11403B2
:101160001146184601F0BAFB01F090FBF862FB6AE9
:10117000134AA2FB03239B0C013BBB62114B124A97
:101180001A60104B40F2E732DA600E4ABB6A5360D5
:101190000C4B00221A610B4B00229A60094801F0A7
:1011A000C5FE0346002B04D1064801F019FF034693
:1011B00000E0012318463037BD4680BD00380240AC
:1011C00083DE1B43200C00200010004080B400AFE1
:1011D000FEE780B400AFFEE780B400AFFEE780B466
:1011E00000AFFEE780B400AFFEE780B400AF00BF01
:1011F000BD465DF8047B704780B500AF024801F042
:101200005FFF00BF80BD00BF200C002080B584B010
:1012100000AF7860114B1B68002B02D10F4B104AB6
:101220001A600E4B1B68FB600C4B1A687B681344FA
:101230006A46934207D903F0DDFF03460C221A6089
:101240004FF0FF3306E0054B1A687B681344034AEE
:101250001360FB6818461037BD4680BD680C00203F
:10126000104A002080B400AF064BD3F88830054AFE
:1012700043F47003C2F8883000BFBD465DF8047BBC
:10128000704700BF00ED00E080B582B000AF78602D
:101290007B6893F8203083F00103DBB2002B01D090
:1012A00000230CE07B6803F1180100230822786812
:1012B00000F016FA7B68002283F8202001231846EC
:1012C0000837BD4680BD80B582B000AF78607868D1
:1012D00000F070FA0346002B01D100230AE07B687E
:1012E00021331946786800F075FA7B68012283F88B
:1012F0002920012318460837BD4680BD80B485B03B
:1013000000AF786039603B6893F82030002B01D043
:10131000002317E00023FB600CE0FB687A681344AD
:1013200019783A68FB68134418330A461A70FB6848
:101330000133FB60FB68072BEFDD3B68012283F87C
:101340002020012318461437BD465DF8047B704702
:1013500080B485B000AF786039603B6893F829307D
:1013600083F00103DBB2002B01D0002316E0002341
:10137000FB600BE0FB687A6813443968FA680A443A
:10138000213212781A70FB680133FB60FB68072B6F
:10139000F0DD3B68002283F829200123184614372A
:1013A000BD465DF8047B704780B582B000AF7860C1
:1013B0000B46FB700021786800F0F4FA7B681B682C
:1013C000FA781146184600F0D1FA0121786800F049
:1013D000E9FA00BF0837BD4680BD80B582B000AFD6
:1013E00078600B46FB701346BB700021786800F0F4
:1013F000D9FA7B681B68FA781146184600F0B6FAED
:101400007B681B68BA781146184600F0AFFA0121D4
:10141000786800F0C7FA00BF0837BD4680BD80B5C8
:1014200086B000AFF8607A601A460B46FB7213462E
:10143000BB720021F86800F0B5FAFB681A68FB7A05
:1014400043F04003DBB21946104600F08FFA002348
:101450007B610BE0FB6818687B697A6813441B7832
:10146000194600F083FA7B6901337B61BB7A7A69A4
:101470009A42EFDB0121F86800F094FA00BF1837B8
:10148000BD4680BD80B584B000AF78600B46FB7070
:101490000023FB730021786800F084FA7B681A68E7
:1014A000FB7863F07F03DBB21946104600F05EFA6A
:1014B0007B681B68FF21184600F058FA0346FB734F
:1014C0000121786800F06EFAFB7B18461037BD46A4
:1014D00080BD80B584B000AF78600B46FB70002300
:1014E000FB730021786800F05DFA7B681A68FB786E
:1014F00063F03F03DBB21946104600F037FA7B6811
:101500001B68FF21184600F031FA0346FB730121E6
:10151000786800F047FAFB7B18461037BD4680BD5F
:1015200090B587B000AFF8607A601A460B46FB7240
:101530001346BB720021F86800F034FAFB681A68A1
:10154000FB7A63F03F03DBB21946104600F00EFA57
:1015500000237B610CE0FB6818687B697A68D4180B
:10156000FF2100F003FA034623707B6901337B619E
:10157000BB7A7A699A42EEDB0121F86800F012FA30
:1015800000BF1C37BD4690BD80B582B000AF78600B
:101590000B46FB70FB78002B09D1462202217868AC
:1015A000FFF71BFF35217868FFF7FEFE0BE0FB78A5
:1015B000012B08D1462202217868FFF70EFF342163
:1015C0007868FFF7F1FE7B68FA789A7400BF0837F5
:1015D000BD4680BD80B582B000AF786036217868A6
:1015E000FFF7E2FE00BF0837BD4680BD80B584B07E
:1015F00000AF78600B46FB701346BB700023FB7393
:101600007B68BA78DA747B68FA785A75072178684B
:10161000FFF738FF034623F00303FB73FB781A46FA
:1016200009217868FFF7D9FEBB78002B16D0BB786C
:10163000012B04D1FB7B43F00103FB730EE0BB786D
:10164000022B04D1FB7B43F00203FB7306E0BB7863
:10165000032B03D1FB7B43F00303FB73FB7B1A4695
:1016600007217868FFF7B9FE00BF1037BD4680BD7F
:1016700080B582B000AF78600B467B807B881B0A08
:101680009BB2DBB21A4604217868FFF7A6FE7B887E
:10169000DBB21A4605217868FFF79FFE00BF0837C6
:1016A000BD4680BD80B582B000AF78607868FFF736
:1016B00091FF3B217868FFF777FE00BF0837BD46F2
:1016C00080BD80B582B000AF78607868FFF782FF98
:1016D0003A217868FFF768FE00BF0837BD4680BD35
:1016E00080B586B000AFF860B96011461A460B4667
:1016F000FB711346BB710023BB82BB79002B02D167
:101700000023FB7508E0BB79012B05D10921F8689E
:10171000FFF7B8FE0346FB75F868FFF7C3FF072124
:10172000F868FFF7AFFE034603F00303002B0ED06B
:10173000FB790133DBB21A463F21F868FFF74DFE13
:10174000FB7D1A463F21F868FFF747FE05E0FB796D
:101750001A463F21F868FFF740FEFB79BA683F213F
:10176000F868FFF75CFE0021F868FFF70DFF13E053
:10177000012000F09FF9BB8A5A1CBA82B3F57A7F28
:101780000AD1F86800F047F90346FB740023BB82D6
:10179000F86800F0B1F809E0F86800F027F90346AE
:1017A00083F00103DBB2002BE2D100BF00BF18378A
:1017B000BD4680BD80B582B000AF78603B217868BF
:1017C000FFF787FE034603F07F03DBB218460837B6
:1017D000BD4680BD80B586B000AF7860396000231B
:1017E0007B750023BB810023FB8210E0012000F009
:1017F00061F9FB8A5A1CFA8240F6B832934206D14C
:101800000023FB82786800F077F8002355E07868C1
:1018100000F0ECF8034683F00103DBB2002BE5D1C6
:101820007868FFF7C7FF0346002B45D03F21786853
:10183000FFF728FE03467B7507217868FFF722FE35
:10184000034603F00303002B03D03F217868FFF722
:1018500019FE7B7D002B01D100232EE07B7D013B17
:101860007B757B7D082B0FD07B7D184603F0ECFC4D
:1018700003463B617B7D3A693F217868FFF750FE64
:10188000386903F0E9FC05E07B7D3A683F21786820
:10189000FFF746FE07F10C0202233F217868FFF7AD
:1018A0003FFE7868FFF70DFF7B7B5BB2002B01DA10
:1018B0007B7D02E0002300E0002318461837BD4678
:1018C00080BD80B582B000AF78600121786800F0FB
:1018D00069F80021786800F065F80121786800F067
:1018E00061F8012000F0E6F830217868FFF75CFD30
:1018F00000BF0837BD4680BD80B584B000AF7860BA
:101900007868FFF7DEFF0023FB600FE0154AFB68F5
:1019100012F81310134AFB685B0013445B781A46F5
:101920007868FFF75AFDFB680133FB60FB68152BF5
:10193000ECDD032205217868FFF758FE48F2997123
:101940007868FFF795FE722213217868FFF745FD4E
:101950000823054A3E217868FFF761FD00BF103774
:10196000BD4680BDBC6E0008B46E000880B586B070
:1019700002AF78600B46FB7000BF7B6893F8513074
:10198000DBB2012BF9D107F10F02F91C4FF47A7386
:1019900000930123786801F05CF8FB7B1846103750
:1019A000BD4680BD80B483B000AF78600B46FB704D
:1019B000FB78002B0AD07B685B689A697B681B897F
:1019C00019467B685B680A439A610AE07B685B683A
:1019D00099697B681B891A047B685B680A439A6172
:1019E00000BF0C37BD465DF8047B704780B483B000
:1019F00000AF78607B68DB681B697A68128A1340E5
:101A0000002B14BF01230023DBB218460C37BD4660
:101A10005DF8047B704780B582B000AF78603521F7
:101A20007868FFF756FD034618460837BD4680BD67
:101A300080B500AF0E4B1B680D4A43F40073136072
:101A40000B4B1B680A4A43F480631360084B1B6806
:101A5000074A43F480731360032000F0FCF8002071
:101A6000FFF75CFBFFF768FA0023184680BD00BF54
:101A7000003C024080B400AF064B1B781A46064B70
:101A80001B681344044A136000BFBD465DF8047B25
:101A9000704700BF080000206C0C002080B400AF2D
:101AA000034B1B681846BD465DF8047B704700BFBA
:101AB0006C0C002080B584B000AF7860FFF7EEFFBB
:101AC000B8607B68FB60FB68B3F1FF3F05D00A4B51
:101AD0001B781A46FB681344FB6000BFFFF7DEFF6C
:101AE0000246BB68D31AFA689A42F7D800BF00BF13
:101AF0001037BD4680BD00BF0800002080B485B00F
:101B000000AF78607B6803F00703FB600C4BDB6879
:101B1000BB60BA684FF6FF031340BB60FB681A0254
:101B2000BB68134343F0BF6343F40033BB60044A14
:101B3000BB68D36000BF1437BD465DF8047B7047B7
:101B400000ED00E080B400AF044BDB681B0A03F03B
:101B500007031846BD465DF8047B704700ED00E0C2
:101B600080B483B000AF0346FB7197F90730002BB8
:101B70000BDBFB7903F01F02074997F907305B097C
:101B8000012000FA02F241F8232000BF0C37BD46C5
:101B90005DF8047B704700BF00E100E080B483B0D3
:101BA00000AF03463960FB7197F90730002B0ADB61
:101BB0003B68DAB20C4997F907301201D2B20B44F4
:101BC00083F800230AE03B68DAB20849FB7903F0A6
:101BD0000F03043B1201D2B20B441A7600BF0C373C
:101BE000BD465DF8047B704700E100E000ED00E0D9
:101BF00080B489B000AFF860B9607A60FB6803F028
:101C00000703FB61FB69C3F10703042B28BF04230F
:101C1000BB61FB690433062B02D9FB69033B00E07F
:101C200000237B614FF0FF32BB6902FA03F3DA4312
:101C3000BB681A407B699A404FF0FF317B6901FA1B
:101C400003F3D9437B680B40134318462437BD4642
:101C50005DF8047B704780B582B000AF786078682B
:101C6000FFF74CFF00BF0837BD4680BD80B586B08A
:101C700000AF0346B9607A60FB7300237B61FFF716
:101C800061FF78617A68B9687869FFF7B1FF024649
:101C900097F90F3011461846FFF780FF00BF18373D
:101CA000BD4680BD80B582B000AF0346FB7197F999
:101CB00007301846FFF754FF00BF0837BD4680BD08
:101CC00080B489B000AF7860396000237B61002365
:101CD0003B610023BB610023FB616BE10122FB69D7
:101CE00002FA03F37B613B681B687A6913403B612E
:101CF0003A697B699A4240F05A813B685B6803F01D
:101D00000303012B05D03B685B6803F00303022B40
:101D100030D17B689B68BB61FB695B00032202FAE0
:101D200003F3DB43BA691340BB613B68DA68FB69C4
:101D30005B0002FA03F3BA691343BB617B68BA69BB
:101D40009A607B685B68BB610122FB6902FA03F35E
:101D5000DB43BA691340BB613B685B681B0903F056
:101D60000102FB6902FA03F3BA691343BB617B68A2
:101D7000BA695A603B685B6803F00303032B17D012
:101D80007B68DB68BB61FB695B00032202FA03F33B
:101D9000DB43BA691340BB613B689A68FB695B002F
:101DA00002FA03F3BA691343BB617B68BA69DA606C
:101DB0003B685B6803F00303022B23D1FB69DA085D
:101DC0007B68083253F82230BB61FB6903F00703DC
:101DD0009B000F2202FA03F3DB43BA691340BB6195
:101DE0003B681A69FB6903F007039B0002FA03F3DF
:101DF000BA691343BB61FB69DA087B680832B969C9
:101E000043F822107B681B68BB61FB695B000322FF
:101E100002FA03F3DB43BA691340BB613B685B68BA
:101E200003F00302FB695B0002FA03F3BA69134390
:101E3000BB617B68BA691A603B685B6803F08053DA
:101E4000002B00F0B4800023FB60604B5B6C5F4AAA
:101E500043F4804353645D4B5B6C03F48043FB604D
:101E6000FB685B4AFB699B08023352F82330BB6175
:101E7000FB6903F003039B000F2202FA03F3DB4329
:101E8000BA691340BB617B68524A93422BD07B688E
:101E9000514A934225D07B68504A93421FD07B68B9
:101EA0004F4A934219D07B684E4A934213D07B68C5
:101EB0004D4A93420DD07B684C4A934207D07B68D1
:101EC0004B4A934201D107230EE008230CE006237E
:101ED0000AE0052308E0042306E0032304E00223CC
:101EE00002E0012300E00023FA6902F003029200FD
:101EF0009340BA691343BB613549FB699B080233C0
:101F0000BA6941F823203B4B1B68BB613B69DB434B
:101F1000BA691340BB613B685B6803F48033002BF4
:101F200003D0BA693B691343BB61324ABB69136092
:101F3000304B5B68BB613B69DB43BA691340BB61F3
:101F40003B685B6803F40033002B03D0BA693B693C
:101F50001343BB61274ABB695360264B9B68BB6137
:101F60003B69DB43BA691340BB613B685B6803F4C0
:101F70008013002B03D0BA693B691343BB611D4A30
:101F8000BB6993601B4BDB68BB613B69DB43BA6990
:101F90001340BB613B685B6803F40013002B03D064
:101FA000BA693B691343BB61124ABB69D360FB69E1
:101FB0000133FB61FB690F2B7FF690AE00BF00BFC2
:101FC0002437BD465DF8047B704700BF00380240EF
:101FD00000380140000002400004024000080240B6
:101FE000000C0240001002400014024000180240A1
:101FF000001C0240003C014080B483B000AF786018
:102000000B467B8013467B707B78002B03D07A884D
:102010007B689A6103E07B881A047B689A6100BF41
:102020000C37BD465DF8047B7047000080B586B074
:1020300000AF78607B68002B01D1012367E27B68E9
:102040001B6803F00103002B75D0884B9B6803F0DD
:102050000C03042B0CD0854B9B6803F00C03082B5E
:1020600012D1824B5B6803F48003B3F5800F0BD170
:102070007E4B1B6803F40033002B5BD07B685B68EE
:10208000002B57D1012342E27B685B68B3F5803FA8
:1020900006D1764B1B68754A43F4803313601DE00C
:1020A0007B685B68B3F5A02F0CD1704B1B686F4A3F
:1020B00043F4802313606D4B1B686C4A43F48033F8
:1020C00013600BE0694B1B68684A23F4803313608C
:1020D000664B1B68654A23F4802313607B685B684A
:1020E000002B13D0FFF7DAFC386108E0FFF7D6FCCD
:1020F00002463B69D31A642B01D9032307E25B4BE9
:102100001B6803F40033002BF0D014E0FFF7C6FC8B
:10211000386108E0FFF7C2FC02463B69D31A642B22
:1021200001D90323F3E1514B1B6803F40033002B67
:10213000F0D100E000BF7B681B6803F00203002BB6
:1021400063D04A4B9B6803F00C03002B0BD0474B2A
:102150009B6803F00C03082B1CD1444B5B6803F411
:102160008003002B16D1414B1B6803F00203002BA8
:1021700005D07B68DB68012B01D00123C7E13B4B15
:102180001B6823F0F8027B681B69DB0037491343A7
:102190000B603AE07B68DB68002B20D0344B0122D7
:1021A0001A60FFF77BFC386108E0FFF777FC024616
:1021B0003B69D31A022B01D90323A8E12B4B1B68DF
:1021C00003F00203002BF0D0284B1B6823F0F80229
:1021D0007B681B69DB00254913430B6015E0244B2A
:1021E00000221A60FFF75AFC386108E0FFF756FC3E
:1021F00002463B69D31A022B01D9032387E11B4B0B
:102200001B6803F00203002BF0D17B681B6803F00E
:102210000803002B36D07B685B69002B16D0154B6A
:1022200001221A60FFF73AFC386108E0FFF736FC3C
:1022300002463B69D31A022B01D9032367E10B4BFA
:102240005B6F03F00203002BF0D01BE0094B002270
:102250001A60FFF723FC38610EE0FFF71FFC02460F
:102260003B69D31A022B07D9032350E100380240FF
:1022700000004742800E4742884B5B6F03F0020329
:10228000002BEAD17B681B6803F00403002B00F0ED
:1022900097800023FB75814B1B6C03F08053002B50
:1022A0000FD10023BB607D4B1B6C7C4A43F08053F5
:1022B00013647A4B1B6C03F08053BB60BB68012333
:1022C000FB75774B1B6803F48073002B18D1744B9C
:1022D0001B68734A43F480731360FFF7DFFB3861B8
:1022E00008E0FFF7DBFB02463B69D31A022B01D95A
:1022F00003230CE16A4B1B6803F48073002BF0D0BE
:102300007B689B68012B06D1644B1B6F634A43F0CB
:10231000010313671CE07B689B68052B0CD15F4BA6
:102320001B6F5E4A43F0040313675C4B1B6F5B4AF1
:1023300043F0010313670BE0584B1B6F574A23F020
:1023400001031367554B1B6F544A23F004031367B3
:102350007B689B68002B15D0FFF7A0FB38610AE073
:10236000FFF79CFB02463B69D31A41F28832934245
:1023700001D90323CBE0494B1B6F03F00203002B71
:10238000EED014E0FFF78AFB38610AE0FFF786FB26
:1023900002463B69D31A41F28832934201D90323A2
:1023A000B5E03E4B1B6F03F00203002BEED1FB7D2B
:1023B000012B05D1394B1B6C384A23F08053136431
:1023C0007B689B69002B00F0A180344B9B6803F075
:1023D0000C03082B5CD07B689B69022B41D1314BED
:1023E00000221A60FFF75AFB386108E0FFF756FB3E
:1023F00002463B69D31A022B01D9032387E0274BFE
:102400001B6803F00073002BF0D17B68DA697B68EE
:102410001B6A1A437B685B6A9B011A437B689B6A51
:102420005B08013B1B041A437B68DB6A1B061B49E4
:1024300013434B601B4B01221A60FFF72FFB3861DF
:1024400008E0FFF72BFB02463B69D31A022B01D9A8
:1024500003235CE0114B1B6803F00073002BF0D0EA
:1024600054E0104B00221A60FFF718FB386108E0B7
:10247000FFF714FB02463B69D31A022B01D9032351
:1024800045E0064B1B6803F00073002BF0D13DE0E4
:102490007B689B69012B07D1012338E0003802409B
:1024A00000700040600047421B4B5B68FB607B682C
:1024B0009B69012B28D0FB6803F480027B68DB69F1
:1024C0009A4221D1FB6803F03F027B681B6A9A4263
:1024D0001AD1FA6847F6C07313407A68526A9201BB
:1024E000934211D1FB6803F440327B689B6A5B081E
:1024F000013B1B049A4207D1FB6803F070627B68C2
:10250000DB6A1B069A4201D0012300E00023184633
:102510001837BD4680BD00BF0038024080B584B08A
:1025200000AF786039607B68002B01D10123CCE0DB
:10253000684B1B6803F007033A689A420CD9654B55
:102540003A68D2B21A70634B1B6803F007033A680B
:102550009A4201D00123B8E07B681B6803F00203B4
:10256000002B20D07B681B6803F00403002B05D0F0
:10257000594B9B68584A43F4E05393607B681B684F
:1025800003F00803002B05D0534B9B68524A43F4D9
:1025900060439360504B9B6823F0F0027B689B681C
:1025A0004D4913438B607B681B6803F00103002BCC
:1025B00044D07B685B68012B07D1474B1B6803F451
:1025C0000033002B19D101237FE07B685B68022B6D
:1025D00003D07B685B68032B07D13F4B1B6803F07C
:1025E0000073002B09D101236FE03B4B1B6803F004
:1025F0000203002B01D1012367E0374B9B6823F0D6
:1026000003027B685B68344913438B60FFF746FA2B
:10261000F8600AE0FFF742FA0246FB68D31A41F27B
:102620008832934201D903234FE02B4B9B6803F080
:102630000C027B685B689B009A42EBD1254B1B68C0
:1026400003F007033A689A420CD2224B3A68D2B29E
:102650001A70204B1B6803F007033A689A4201D0B6
:10266000012332E07B681B6803F00403002B08D0D1
:10267000194B9B6823F4E0527B68DB6816491343CF
:102680008B607B681B6803F00803002B09D0124B9A
:102690009B6823F460427B681B69DB000E4913438F
:1026A0008B6000F021F802460B4B9B681B0903F07E
:1026B0000F030A49CB5C22FA03F3094A1360094B62
:1026C0001B681846FEF72AFD002318461037BD4642
:1026D00080BD00BF003C0240003802409C6E0008F4
:1026E00000000020040000202DE9B04F90B000AFA2
:1026F00000237B630023FB6300233B630023BB6356
:10270000594B9B6803F00C03082B0DD0082B00F2EB
:10271000A180002B02D0042B03D09BE0534BBB6362
:102720009BE0534BBB6398E04F4B5B6803F03F0368
:102730007B634D4B5B6803F48003002B28D04A4B2E
:102740005B689B0900223B627A623B6AC3F3080024
:102750000021474B03FB01F2002300FB03F313446A
:10276000434AA0FB0212FA620A46BA62FA6A1344AA
:10277000FB627B6B0022BB61FA61D7E90623D7E9D4
:102780000A01FDF73DFD02460B461346FB6353E08D
:10279000354B5B689B0900223B617A613B69C3F35F
:1027A000080A4FF0000B52465B464FF000004FF016
:1027B0000001590141EAD261500102460B46B2EBD9
:1027C0000A0863EB0B094FF000024FF000034FEAD9
:1027D000891343EA98634FEA8812B2EB080463EB6B
:1027E00009054FF000024FF00003EB0043EA547379
:1027F000E20014461D4614EB0A033B6045EB0B0355
:102800007B604FF000024FF00003D7E900452946F6
:102810008B02214643EA915321468A02104619460B
:102820007B6B0022BB60FA60D7E90223FDF7E8FC6E
:1028300002460B461346FB630B4B5B681B0C03F015
:10284000030301335B003B63FA6B3B6BB2FBF3F3B7
:10285000BB6302E0054BBB6300BFBB6B1846403750
:10286000BD46BDE8B08F00BF003802400024F40030
:1028700040787D0180B400AF034B1B681846BD460D
:102880005DF8047B704700BF0000002080B500AFFA
:10289000FFF7F0FF0246054B9B689B0A03F0070316
:1028A0000349CB5C22FA03F3184680BD003802408E
:1028B000AC6E000880B500AFFFF7DCFF0246054BA9
:1028C0009B685B0B03F007030349CB5C22FA03F31D
:1028D000184680BD00380240AC6E000880B483B05A
:1028E00000AF786039607B680F221A60124B9B68DA
:1028F00003F003027B685A600F4B9B6803F0F00201
:102900007B689A600C4B9B6803F4E0527B68DA604A
:10291000094B9B68DB0803F4E0527B681A61074BA4
:102920001B6803F007023B681A6000BF0C37BD4606
:102930005DF8047B704700BF00380240003C024055
:1029400080B582B000AF78607B68002B01D1012395
:102950007BE07B685B6A002B08D17B685B68B3F522
:10296000827F09D07B680022DA6105E07B68002263
:102970001A617B6800225A617B6800229A627B6838
:1029800093F85130DBB2002B06D17B68002283F82C
:1029900050207868FEF7FCFA7B68022283F8512009
:1029A0007B681B681A687B681B6822F040021A600B
:1029B0007B685B6803F482727B689B6803F4044362
:1029C0001A437B68DB6803F400631A437B681B6966
:1029D00003F002031A437B685B6903F001031A43A7
:1029E0007B689B6903F400731A437B68DB6903F01F
:1029F00038031A437B681B6A03F0800342EA030131
:102A00007B689B6A03F400527B681B680A431A6068
:102A10007B689B691B0C03F004017B685B6A03F015
:102A200010027B681B680A435A607B681B68DA697E
:102A30007B681B6822F40062DA617B6800225A65B9
:102A40007B68012283F85120002318460837BD46D1
:102A500080BD80B58CB000AFF860B9607A607B80D3
:102A60000123FB62002387F82B30FB6893F850307A
:102A7000012B01D102238AE1FB68012283F8502057
:102A8000FFF70CF87862FB6893F8513087F8233031
:102A9000FB685B68FB617B887B8397F82330012BA5
:102AA0000FD0FB69B3F5827F07D1FB689B68002BD1
:102AB00003D197F82330042B03D0022387F82B305F
:102AC0005BE1BB68002B05D07B68002B02D07B88C4
:102AD000002B03D1012387F82B304EE1FB6893F8DC
:102AE0005130DBB2042B03D0FB68052283F8512060
:102AF000FB6800225A65FB687A689A63FB687A88EB
:102B0000DA87FB687A889A87FB68BA681A63FB6879
:102B10007A88DA86FB687A889A86FB6800221A64CB
:102B2000FB6800225A64FB681B681B6803F04003C3
:102B3000402B07D0FB681B681A68FB681B6842F0D3
:102B400040021A60FB68DB68B3F5006F78D1FB6860
:102B50005B68002B02D07B8B012B66D1FB681B6B63
:102B60001A88FB681B68DA60FB681B6B9A1CFB68A1
:102B70001A63FB68DB8E9BB2013B9AB2FB68DA8674
:102B800053E0FB681B689B6803F00203022B1BD118
:102B9000FB68DB8E9BB2002B16D0FB6A012B13D196
:102BA000FB681B6B1A88FB681B68DA60FB681B6B91
:102BB0009A1CFB681A63FB68DB8E9BB2013B9AB2DE
:102BC000FB68DA860023FB62FB681B689B6803F0E6
:102BD0000103012B19D1FB68DB8F9BB2002B14D0B2
:102BE000FB681B68DA68FB689B6B92B21A80FB6813
:102BF0009B6B9A1CFB689A63FB68DB8F9BB2013B63
:102C00009AB2FB68DA870123FB62FEF747FF0246B0
:102C10007B6AD31ABA6B9A4207D8BB6BB3F1FF3FFA
:102C200003D0032387F82B30A7E0FB68DB8E9BB231
:102C3000002BA6D1FB68DB8F9BB2002BA1D17CE0DF
:102C4000FB685B68002B02D07B8B012B6BD1FB6890
:102C50001A6BFB681B680C3312781A70FB681B6BCD
:102C60005A1CFB681A63FB68DB8E9BB2013B9AB26D
:102C7000FB68DA8657E0FB681B689B6803F0020379
:102C8000022B1CD1FB68DB8E9BB2002B17D0FB6A9A
:102C9000012B14D1FB681A6BFB681B680C3312788C
:102CA0001A70FB681B6B5A1CFB681A63FB68DB8E8F
:102CB0009BB2013B9AB2FB68DA860023FB62FB6899
:102CC0001B689B6803F00103012B19D1FB68DB8FA4
:102CD0009BB2002B14D0FB681B68DA68FB689B6B07
:102CE000D2B21A70FB689B6B5A1CFB689A63FB6834
:102CF000DB8F9BB2013B9AB2FB68DA870123FB6250
:102D0000FEF7CCFE02467B6AD31ABA6B9A4203D80E
:102D1000BB6BB3F1FF3F02D1BB6B002B03D103238D
:102D200087F82B3029E0FB68DB8E9BB2002BA2D109
:102D3000FB68DB8F9BB2002B9DD17A6AB96BF86878
:102D400000F0B2F80346002B06D0012387F82B30A1
:102D5000FB6820225A6510E0FB689B68002B0BD1B2
:102D600000237B61FB681B68DB687B61FB681B6879
:102D70009B687B617B6900E000BFFB68012283F8F0
:102D80005120FB68002283F8502097F82B3018461A
:102D90003037BD4680BD000080B588B000AFF86018
:102DA000B9603B601346FB71FEF778FE0246BB6AD2
:102DB0009B1A3A681344FB61FEF770FEB861394B09
:102DC0001B685B011B0DFA6902FB03F37B6154E096
:102DD0003B68B3F1FF3F50D0FEF760FE0246BB698F
:102DE000D31AFA699A4202D9FB69002B3DD1FB68DC
:102DF0001B685A68FB681B6822F0E0025A60FB6897
:102E00005B68B3F5827F11D1FB689B68B3F5004F17
:102E100004D0FB689B68B3F5806F07D1FB681B6823
:102E20001A68FB681B6822F040021A60FB689B6A04
:102E3000B3F5005F0FD1FB681B681A68FB681B685D
:102E400022F400521A60FB681B681A68FB681B6852
:102E500042F400521A60FB68012283F85120FB689B
:102E6000002283F85020032317E07B69002B01D157
:102E70000023FB617B69013B7B61FB681B689A68EF
:102E8000BB681340BA689A420CBF01230023DBB22F
:102E90001A46FB799A429BD1002318462037BD463B
:102EA00080BD00BF0000002080B588B002AFF86090
:102EB000B9607A601B4B1B681B4AA2FB03235B0DA6
:102EC0004FF47A7202FB03F37B61FB685B68B3F536
:102ED000827F12D17B680093BB6800228021F86852
:102EE000FFF75AFF0346002B16D0FB685B6D43F0DB
:102EF0002002FB685A6503230FE07B69002B0AD090
:102F00007B69013B7B61FB681B689B6803F0800366
:102F1000802BF2D000E000BF002318461837BD46D2
:102F200080BD00BF00000020819F5E1680B582B08A
:102F300000AF78607B68002B01D1012341E07B6802
:102F400093F83D30DBB2002B06D17B68002283F87A
:102F50003C20786800F039F87B68022283F83D2035
:102F60007B681A687B6804331946104600F0D8F96C
:102F70007B68012283F846207B68012283F83E208B
:102F80007B68012283F83F207B68012283F8402080
:102F90007B68012283F841207B68012283F842206C
:102FA0007B68012283F843207B68012283F8442058
:102FB0007B68012283F845207B68012283F83D204D
:102FC000002318460837BD4680BD80B483B000AFEB
:102FD000786000BF0C37BD465DF8047B7047000089
:102FE00080B485B000AF78607B6893F83D30DBB289
:102FF000012B01D001234EE07B68022283F83D20A3
:103000007B681B68DA687B681B6842F00102DA6043
:103010007B681B68234A934222D07B681B68B3F10C
:10302000804F1DD07B681B681F4A934218D07B6875
:103030001B681E4A934213D07B681B681C4A93424C
:103040000ED07B681B681B4A934209D07B681B68C3
:10305000194A934204D07B681B68184A934211D1E5
:103060007B681B689B6803F00703FB60FB68062B0B
:1030700010D07B681B681A687B681B6842F00102ED
:103080001A6007E07B681B681A687B681B6842F05F
:1030900001021A60002318461437BD465DF8047B10
:1030A000704700BF000001400004004000080040DD
:1030B000000C0040000401400040014000180040A6
:1030C00080B582B000AF78607B681B681B6903F035
:1030D0000203022B22D17B681B68DB6803F002032A
:1030E000022B1BD17B681B686FF002021A617B68A0
:1030F00001221A777B681B689B6903F00303002B8E
:1031000003D0786800F0EEF805E0786800F0E0F8A9
:10311000786800F0F1F87B6800221A777B681B68FA
:103120001B6903F00403042B22D17B681B68DB6856
:1031300003F00403042B1BD17B681B686FF00402AF
:103140001A617B6802221A777B681B689B6903F40B
:103150004073002B03D0786800F0C4F805E078686D
:1031600000F0B6F8786800F0C7F87B6800221A779C
:103170007B681B681B6903F00803082B22D17B685E
:103180001B68DB6803F00803082B1BD17B681B68F6
:103190006FF008021A617B6804221A777B681B684B
:1031A000DB6903F00303002B03D0786800F09AF882
:1031B00005E0786800F08CF8786800F09DF87B688E
:1031C00000221A777B681B681B6903F01003102B21
:1031D00022D17B681B68DB6803F01003102B1BD126
:1031E0007B681B686FF010021A617B6808221A77EF
:1031F0007B681B68DB6903F44073002B03D078689D
:1032000000F070F805E0786800F062F8786800F087
:1032100073F87B6800221A777B681B681B6903F0D0
:103220000103012B0ED17B681B68DB6803F00103EF
:10323000012B07D17B681B686FF001021A61786867
:10324000FDF79CFD7B681B681B6903F08003802BE6
:103250000ED17B681B68DB6803F08003802B07D1ED
:103260007B681B686FF080021A61786800F002F9D1
:103270007B681B681B6903F04003402B0ED17B6801
:103280001B68DB6803F04003402B07D17B681B6899
:103290006FF040021A61786800F038F87B681B68AC
:1032A0001B6903F02003202B0ED17B681B68DB68B1
:1032B00003F02003202B07D17B681B686FF02002EE
:1032C0001A61786800F0CCF800BF0837BD4680BDB1
:1032D00080B483B000AF786000BF0C37BD465DF8A6
:1032E000047B704780B483B000AF786000BF0C37B8
:1032F000BD465DF8047B704780B483B000AF786052
:1033000000BF0C37BD465DF8047B704780B483B0C6
:1033100000AF786000BF0C37BD465DF8047B704796
:1033200080B485B000AF786039607B681B68FB6053
:103330007B68404A934213D07B68B3F1804F0FD033
:103340007B683D4A93420BD07B683C4A934207D04E
:103350007B683B4A934203D07B683A4A934208D148
:10336000FB6823F07003FB603B685B68FA681343FB
:10337000FB607B682F4A93422BD07B68B3F1804F70
:1033800027D07B682C4A934223D07B682B4A9342F8
:103390001FD07B682A4A93421BD07B68294A9342FC
:1033A00017D07B68284A934213D07B68274A934200
:1033B0000FD07B68264A93420BD07B68254A934204
:1033C00007D07B68244A934203D07B68234A934208
:1033D00008D1FB6823F44073FB603B68DB68FA6844
:1033E0001343FB60FB6823F080023B685B69134377
:1033F000FB607B68FA681A603B689A687B68DA62EF
:103400003B681A687B689A627B680A4A934203D0D9
:103410007B680C4A934203D13B681A697B681A6344
:103420007B6801225A6100BF1437BD465DF8047BFA
:10343000704700BF00000140000400400008004049
:10344000000C0040000401400040014000440140E5
:103450000048014000180040001C004000200040CF
:1034600080B483B000AF786000BF0C37BD465DF814
:10347000047B704780B483B000AF786000BF0C3726
:10348000BD465DF8047B704780B582B000AF7860C0
:103490007B68002B01D101233FE07B6893F83D302E
:1034A000DBB2002B06D17B68002283F83C207868D1
:1034B000FDF7ECFD7B68242283F83D207B681B68C8
:1034C000DA687B681B6822F40052DA60786800F0E2
:1034D000A7F97B681B681A697B681B6822F4904215
:1034E0001A617B681B685A697B681B6822F02A0294
:1034F0005A617B681B68DA687B681B6842F400527B
:10350000DA607B6800221A647B68202283F83D2001
:103510007B68202283F83E20002318460837BD46EA
:1035200080BD80B58AB002AFF860B9603B601346D9
:10353000FB8000237B61FB6893F83D30DBB2202BDE
:103540007CD1BB68002B02D0FB88002B01D101236A
:1035500075E0FB6893F83C30012B01D102236EE04B
:10356000FB68012283F83C20FB6800221A64FB6898
:10357000212283F83D20FEF791FA7861FB68FA88F2
:103580009A84FB68FA88DA84FB689B68B3F5805FED
:1035900008D1FB681B69002B04D10023FB61BB68C9
:1035A000BB6103E0BB68FB610023BB61FB680022D9
:1035B00083F83C202AE03B6800937B69002280214D
:1035C000F86800F0E2F80346002B01D0032336E050
:1035D000FB69002B0BD1BB691B881A46FB681B6873
:1035E000C2F308025A60BB690233BB6107E0FB69A2
:1035F0001A78FB681B685A60FB690133FB61FB6842
:10360000DB8C9BB2013B9AB2FB68DA84FB68DB8CF3
:103610009BB2002BCFD13B6800937B6900224021F5
:10362000F86800F0B2F80346002B01D0032306E04F
:10363000FB68202283F83D20002300E00223184687
:103640002037BD4680BD80B58AB002AFF860B96052
:103650003B601346FB8000237B61FB6893F83E30A0
:10366000DBB2202B40F08C80BB68002B02D0FB88A3
:10367000002B01D1012384E0FB6893F83C30012B3F
:1036800001D102237DE0FB68012283F83C20FB6826
:1036900000221A64FB68222283F83E20FB68002285
:1036A0001A63FEF7FBF97861FB68FA889A85FB6874
:1036B000FA88DA85FB689B68B3F5805F08D1FB6800
:1036C0001B69002B04D10023FB61BB68BB6103E0D5
:1036D000BB68FB610023BB61FB68002283F83C20D0
:1036E00043E03B6800937B6900222021F86800F0EA
:1036F0004CF80346002B01D0032342E0FB69002B6A
:103700000CD1FB681B685B689BB2C3F308039AB2D9
:10371000BB691A80BB690233BB611FE0FB689B6811
:10372000B3F5805F07D0FB689B68002B0AD1FB686C
:103730001B69002B06D1FB681B685B68DAB2FB696A
:103740001A7008E0FB681B685B68DBB203F07F035C
:10375000DAB2FB691A70FB690133FB61FB68DB8D30
:103760009BB2013B9AB2FB68DA85FB68DB8D9BB2AA
:10377000002BB6D1FB68202283F83E20002300E016
:10378000022318462037BD4680BD80B584B000AF07
:10379000F860B9603B601346FB712CE0BB69B3F184
:1037A000FF3F28D0BB69002B07D0FEF777F9024610
:1037B0003B68D31ABA699A421DD2FB681B68DA6863
:1037C000FB681B6822F4D072DA60FB681B685A69D8
:1037D000FB681B6822F001025A61FB68202283F813
:1037E0003D20FB68202283F83E20FB68002283F8FE
:1037F0003C2003230FE0FB681B681A68BB6813407A
:10380000BA689A420CBF01230023DBB21A46FB7947
:103810009A42C3D0002318461037BD4680BD000031
:103820002DE9B04FC0B000AFC7F8F400D7F8F430BE
:103830001B681B6923F44050D7F8F430D968D7F8D7
:10384000F4301A6840EA01031361D7F8F4309A683B
:10385000D7F8F4301B691A43D7F8F4305B691A4380
:10386000D7F8F430DB691343C7F8F830D7F8F430F1
:103870001B68DB6823F4164121F00C01D7F8F43003
:103880001A68D7F8F8300B43D360D7F8F4301B68C8
:103890005B6923F44070D7F8F4309969D7F8F430B5
:1038A0001A6840EA01035361D7F8F4301A688F4B65
:1038B0009A4205D0D7F8F4301A688D4B9A4204D159
:1038C000FEF7F8FFC7F8FC0003E0FEF7DFFFC7F8DC
:1038D000FC00D7F8F430DB69B3F5004F40F00C8101
:1038E000D7F8FC300022C7F8E830C7F8EC20D7E959
:1038F0003A4522462B469118B9655B41FB65D7E9ED
:103900001623214612EB0108294643EB01094FF02B
:1039100000024FF000034FEAC90343EA58734FEA2D
:10392000C80290469946234618EB0303C7F8E030D7
:103930002B4649EB0303C7F8E430D7F8F4305B6853
:103940000022C7F8D830C7F8DC20D7E936120B467A
:10395000DB183B65134642EB03037B65D7E9142371
:10396000D7E93801FCF74CFC02460B46614BA3FB40
:1039700002235B091C01D7F8FC300022C7F8D030C5
:10398000C7F8D420D7E9348942464B469118B96428
:103990005B41FB64D7E91223414612EB010A494619
:1039A00043EB010B4FF000024FF000034FEACB0353
:1039B00043EA5A734FEACA0292469B4643461AEBC1
:1039C0000303C7F8C8304B464BEB0303C7F8CC30B2
:1039D000D7F8F4305B680022C7F8C030C7F8C420BD
:1039E000D7E930120B46DB183B64134642EB030366
:1039F0007B64D7E91023D7E93201FCF701FC0246CA
:103A00000B4611463B4BA3FB01235B09642202FBDF
:103A100003F3CB1ADB0003F13202364BA3FB022384
:103A20005B095B0003F4F8731C44D7F8FC300022F8
:103A3000C7F8B830C7F8BC20D7E92E8942464B46B4
:103A40009118B9635B41FB63D7E90E2341465118D6
:103A5000396349464B417B634FF000024FF000034E
:103A6000D7E90CAB5946CB00514643EA5173514656
:103A7000CA0010461946034642469B18C7F8B030A4
:103A80004B460A4642EB0303C7F8B430D7F8F4308C
:103A90005B680022C7F8A830C7F8AC20D7E92A1223
:103AA0000B46DB18BB62134642EB0303FB62D7E90C
:103AB0000A23D7E92C01FCF7A3FB02460B460D4B6A
:103AC000A3FB02135B09642101FB03F3D31ADB00A0
:103AD0003233084AA2FB03235B0903F00702D7F83D
:103AE000F4301B6822449A6005E100BF00100140D9
:103AF000001401401F85EB51D7F8FC300022C7F8B5
:103B0000A030C7F8A420D7E9288942464B4691182F
:103B100039625B417B62D7E9082341465418494624
:103B200043EB01054FF000024FF00003EB0043EAC6
:103B30005473E20014461D464346E318C7F8983014
:103B40004B4645EB0303C7F89C30D7F8F4305B686D
:103B50000022C7F89030C7F894204FF000024FF0D1
:103B60000003D7E9244529468B00214643EA917397
:103B700021468A00D7E92601FCF742FB02460B46A4
:103B8000604BA3FB02235B091C01D7F8FC30002229
:103B9000C7F88830C7F88C20D7E9228942464B46BF
:103BA0009118B9615B41FB61D7E906234146511881
:103BB000396149464B417B614FF000024FF00003F1
:103BC000D7E904AB5946CB00514643EA51735146FD
:103BD000CA0010461946034642469B18C7F8803073
:103BE0004B460A4642EB0303C7F88430D7F8F4305B
:103BF0005B680022BB67FA674FF000024FF00003DA
:103C0000D7E91E8949468B00414643EA91734146F4
:103C10008A00D7E92001FCF7F3FA02460B46394B3C
:103C2000A3FB02135B09642101FB03F3D31A1B01FD
:103C30003233344AA2FB03235B0903F0F0031C4434
:103C4000D7F8FC3000223B677A67D7E91C894246E7
:103C50004B469118B9605B41FB60D7E902234146AE
:103C60005118396049464B417B604FF000024FF0DC
:103C70000003D7E900AB5946CB00514643EA5173E4
:103C80005146CA0010461946034642469B18BB6679
:103C90004B460A4642EB0303FB66D7F8F4305B68F9
:103CA00000223B667A664FF000024FF00003D7E92E
:103CB000188949468B00414643EA917341468A0080
:103CC000D7E91A01FCF79CFA02460B460D4BA3FB01
:103CD00002135B09642101FB03F3D31A1B01323386
:103CE000084AA2FB03235B0903F00F02D7F8F43064
:103CF0001B6822449A6000BF07F58077BD46BDE887
:103D0000B08F00BF1F85EB5180B485B000AF034674
:103D1000FB800023FB60B7F90630842B05D0B7F990
:103D20000620FB6813440333FB60FB681846143716
:103D3000BD465DF8047B704780B500AF00F0D6FE4D
:103D40000023184680BDF0B589B004AF78603960B3
:103D50007B685B69002B20D07B689B69002B1CD0A3
:103D60007B685C687B681D687B681E697B68B3F94B
:103D700008301846FFF7C8FF01467B685B697A6820
:103D800092690292019300913B683246294620468F
:103D900000F0E4FC0346FB601CE07B685C687B6829
:103DA0001D687B681B699EB27B68B3F908301846B2
:103DB000FFF7AAFF024607F10C03019300923B684C
:103DC00032462946204600F026FD0346012B01D04D
:103DD000002300E0FB6818461437BD46F0BD80B5EF
:103DE00084B000AF78607B68FB60FB68002B01D07B
:103DF000FB6800E00123184600F044FE002318464B
:103E00001037BD4680BD80B483B000AF78607B685A
:103E100003F108027B685A607B684FF0FF329A60BA
:103E20007B6803F108027B68DA607B6803F10802B3
:103E30007B681A617B6800221A6000BF0C37BD46A0
:103E40005DF8047B704780B483B000AF78607B6816
:103E500000221A6100BF0C37BD465DF8047B704735
:103E600080B485B000AF786039607B685B68FB60C8
:103E70003B68FA685A60FB689A683B689A60FB681E
:103E80009B683A685A60FB683A689A603B687A684F
:103E90001A617B681B685A1C7B681A6000BF143764
:103EA000BD465DF8047B704780B485B000AF786094
:103EB00039603B681B68BB60BB68B3F1FF3F03D14F
:103EC0007B681B69FB600CE07B680833FB6002E0E9
:103ED000FB685B68FB60FB685B681B68BA689A42BA
:103EE000F6D2FB685A683B685A603B685B683A6880
:103EF0009A603B68FA689A60FB683A685A603B6867
:103F00007A681A617B681B685A1C7B681A6000BF5C
:103F10001437BD465DF8047B704780B485B000AFB0
:103F200078607B681B69FB607B685B687A68926875
:103F30009A607B689B687A6852685A60FB685B6825
:103F40007A689A4203D17B689A68FB685A607B68FA
:103F500000221A61FB681B685A1EFB681A60FB6826
:103F60001B6818461437BD465DF8047B7047000097
:103F700080B485B000AFF860B9607A60FB68043B3C
:103F8000FB60FB684FF080721A60FB68043BFB60CB
:103F9000BB6823F00102FB681A60FB68043BFB600E
:103FA0000C4AFB681A60FB68143BFB607A68FB688C
:103FB0001A60FB68043BFB60FB686FF002021A604A
:103FC000FB68203BFB60FB6818461437BD465DF874
:103FD000047B7047D93F000880B485B000AF002350
:103FE0007B60124B1B68B3F1FF3F0AD04FF05003C8
:103FF00083F31188BFF36F8FBFF34F8FFB6000BF58
:10400000FEE74FF0500383F31188BFF36F8FBFF3C8
:104010004F8FBB6000BF00BF7B68002BFCD000BF90
:1040200000BF1437BD465DF8047B70470C000020CC
:10403000074B19680868B0E8F04F80F30988BFF3B0
:104040006F8F4FF0000080F311887047AFF300804E
:104050009848002000BF00BF08480068006880F34F
:1040600008884FF0000080F3148862B661B6BFF391
:104070004F8FBFF36F8F00DF00BF00BF08ED00E080
:1040800080B586B000AF464B1B68464A93420AD1C2
:104090004FF0500383F31188BFF36F8FBFF34F8F3F
:1040A0003B6100BFFEE73E4B1B683F4A93420AD18B
:1040B0004FF0500383F31188BFF36F8FBFF34F8F1F
:1040C000FB6000BFFEE7394B7B617B691B78DBB28D
:1040D0007B607B69FF221A707B691B78DBB2FB7007
:1040E000FB78DBB203F05003DAB2314B1A70314B7C
:1040F00007221A6009E02F4B1B68013B2D4A136011
:10410000FB78DBB25B00DBB2FB70FB78DBB203F069
:104110008003802BEFD0274B1B68C3F10703042BD0
:104120000AD04FF0500383F31188BFF36F8FBFF3B2
:104130004F8FBB6000BFFEE71E4B1B681B021D4A72
:1041400013601C4B1B6803F4E0631A4A13607B681E
:10415000DAB27B691A70184B1B68174A43F4700374
:104160001360154B1B68144A43F07043136000F052
:10417000DDF8124B00221A6000F0FCF8104B1B68AF
:104180000F4A43F040431360FFF766FF00F070FEF4
:10419000FFF722FF002318461837BD4680BD00BF39
:1041A00000ED00E071C20F4170C20F4100E400E079
:1041B000700C0020740C002020ED00E00C000020AA
:1041C00034EF00E080B483B000AF4FF0500383F3CE
:1041D0001188BFF36F8FBFF34F8F7B6000BF0F4B12
:1041E0001B6801330D4A13600C4B1B68012B0FD168
:1041F0000B4B1B68DBB2002B0AD04FF0500383F34C
:104200001188BFF36F8FBFF34F8F3B6000BFFEE796
:1042100000BF0C37BD465DF8047B70470C000020E2
:1042200004ED00E080B483B000AF124B1B68002B9C
:104230000AD14FF0500383F31188BFF36F8FBFF3A0
:104240004F8F7B6000BFFEE70A4B1B68013B094AAA
:104250001360084B1B68002B05D100233B603B68B3
:1042600083F3118800BF00BF0C37BD465DF8047BA7
:10427000704700BF0C00002000000000000000009C
:10428000EFF30980BFF36F8F154B1A681EF0100F04
:1042900008BF20ED108A20E9F04F10602DE90900D9
:1042A0004FF0500080F31188BFF34F8FBFF36F8F33
:1042B00000F0DEFD4FF0000080F3118809BC1968A2
:1042C0000868B0E8F04F1EF0100F08BFB0EC108A7D
:1042D00080F30988BFF36F8F704700BFAFF3008092
:1042E0009848002000BF00BF80B582B000AF4FF0FB
:1042F000500383F31188BFF36F8FBFF34F8F7B6041
:1043000000BF00F0FDFC0346002B03D0064B4FF02E
:1043100080521A6000233B603B6883F3118800BF22
:1043200000BF0837BD4680BD04ED00E080B400AF9B
:104330000B4B00221A600B4B00221A600A4B1B68C1
:104340000A4AA2FB03239B09094A013B1360044B61
:1043500007221A6000BFBD465DF8047B704700BFAE
:1043600010E000E018E000E000000020D34D6210F3
:1043700014E000E0DFF80C00016841F47001016016
:10438000704700BF88ED00E080B58AB000AF78606C
:104390000023FB6100F00AFC5B4B1B68002B01D182
:1043A00000F020F9594B1A687B681340002B40F04D
:1043B00093807B68002B1DD008227B6813447B60B0
:1043C0007B6803F00703002B14D07B6823F00703FE
:1043D00008337B607B6803F00703002B0AD04FF0A3
:1043E000500383F31188BFF36F8FBFF34F8F7B614F
:1043F00000BFFEE77B68002B6ED0454B1B687A68D8
:104400009A4269D8434B3B62424B1B687B6204E093
:104410007B6A3B627B6A1B687B627B6A5B687A684B
:104420009A4203D97B6A1B68002BF1D1364B1B687B
:104430007A6A9A4250D03B6A1B6808221344FB6197
:104440007B6A1A683B6A1A607B6A5A687B68D21A70
:1044500008235B009A421FD97A6A7B681344BB61C8
:10446000BB6903F00703002B0AD04FF0500383F31E
:104470001188BFF36F8FBFF34F8F3B6100BFFEE723
:104480007B6A5A687B68D21ABB695A607B6A7A6811
:104490005A60B86900F008F91D4B1A687B6A5B68BE
:1044A000D31A1B4A13601A4B1A681B4B1B689A429B
:1044B00003D2174B1B68184A13607B6A5A68134B68
:1044C0001B681A437B6A5A607B6A00221A60134B8E
:1044D0001B680133114A136000F076FBFB6903F09F
:1044E0000703002B0AD04FF0500383F31188BFF36A
:1044F0006F8FBFF34F8FFB6000BFFEE7FB6918466D
:104500002837BD4680BD00BF804800209448002069
:104510008448002078480020884800208C480020EB
:1045200080B586B000AF78607B687B617B68002BCC
:104530004DD008235B427A6913447B617B693B6100
:104540003B695A68244B1B681340002B0AD14FF07B
:10455000500383F31188BFF36F8FBFF34F8FFB605E
:1045600000BFFEE73B691B68002B0AD04FF05003E9
:1045700083F31188BFF36F8FBFF34F8FBB6000BF12
:10458000FEE73B695A68144B1B681340002B1ED092
:104590003B691B68002B1AD13B695A680E4B1B689C
:1045A000DB431A403B695A6000F000FB3B695A68E4
:1045B0000A4B1B681344094A1360386900F074F809
:1045C000074B1B680133064A136000F0FDFA00BF79
:1045D0001837BD4680BD00BF9448002084480020A5
:1045E0009048002080B485B000AF4FF47053BB609A
:1045F000274BFB60FB6803F00703002B0CD0FB6824
:104600000733FB60FB6823F00703FB60BA68FB68B5
:10461000D31A1F4A1344BB60FB687B601D4A7B684A
:1046200013601C4B00225A607B68BA681344FB601D
:104630000822FB689B1AFB60FB6823F00703FB6002
:10464000FB68154A1360144B1B6800225A60124B1A
:104650001B6800221A607B683B603B68FA68D21ACC
:104660003B685A600C4B1A683B681A603B685B6891
:104670000A4A13603B685B68094A1360094B4FF0B4
:1046800000421A6000BF1437BD465DF8047B7047D6
:10469000780C0020784800208048002088480020BE
:1046A000844800209448002080B485B000AF786032
:1046B000284BFB6002E0FB681B68FB60FB681B6823
:1046C0007A689A42F7D8FB68BB60FB685B68BA6897
:1046D00013447A689A4208D1FB685A687B685B6821
:1046E0001A44FB685A60FB687B607B68BB607B6830
:1046F0005B68BA681A44FB681B689A4218D1FB6869
:104700001A68154B1B689A420DD07B685A68FB6883
:104710001B685B681A447B685A60FB681B681A68F0
:104720007B681A6008E00C4B1A687B681A6003E02B
:10473000FB681A687B681A60FA687B689A4202D044
:10474000FB687A681A6000BF1437BD465DF8047BC9
:10475000704700BF784800208048002080B58EB0A8
:1047600004AFF860B9607A603B607B6B002B0AD1C4
:104770004FF0500383F31188BFF36F8FBFF34F8F58
:104780003B6200BFFEE7BB6B002B0AD14FF050032A
:1047900083F31188BFF36F8FBFF34F8FFB6100BFAF
:1047A000FEE754233B613B69542B0AD04FF0500382
:1047B00083F31188BFF36F8FBFF34F8FBB6100BFCF
:1047C000FEE73B69BB6B002B1ED07B6B002B1BD025
:1047D000BB6B7B627B6A7A6B1A637B6A022283F80B
:1047E0005120002303937B6A029307F11403019382
:1047F0003B6B00933B687A68B968F86800F050F842
:10480000786A00F0D5F801E000237B617B691846E7
:104810002837BD4680BD80B58CB004AFF860B96064
:104820003B601346FB80FB889B001846FFF7ACFDFE
:1048300078617B69002B0ED05420FFF7A5FDF8614D
:10484000FB69002B03D0FB697A691A6305E078697C
:10485000FFF766FE01E00023FB61FB69002B17D028
:10486000FB69002283F85120FA8800230393FB6937
:104870000293FB6A0193BB6A00933B68B968F868CE
:1048800000F00EF8F86900F093F80123BB6102E034
:104890004FF0FF33BB61BB6918462037BD4680BD72
:1048A00080B588B000AFF860B9607A603B603B6B60
:1048B0001A6B7B6803F18043013B9B001344BB618F
:1048C000BB6923F00703BB61BB6903F00703002B3F
:1048D0000AD04FF0500383F31188BFF36F8FBFF3FB
:1048E0004F8F7B6100BFFEE7BB68002B1FD000230A
:1048F000FB6112E0BA68FB69134419783A6BFB69F3
:10490000134434330A461A70BA68FB6913441B789F
:10491000002B06D0FB690133FB61FB690F2BE9D942
:1049200000E000BF3B6B002283F8432003E03B6BB9
:10493000002283F83420BB6A062B01D90623BB6210
:104940003B6BBA6ADA623B6BBA6A5A643B6B002211
:104950009A643B6B04331846FFF775FA3B6B1833C8
:104960001846FFF770FA3B6B3A6B1A61BB6AC3F1EA
:1049700007023B6B9A613B6B3A6B5A623B6B0022BE
:10498000DA643B6B002283F850203A68F968B86912
:10499000FFF7EEFA02463B6B1A60FB6A002B02D06F
:1049A000FB6A3A6B1A6000BF2037BD4680BD00002D
:1049B00080B582B000AF7860FFF704FC2A4B1B681B
:1049C0000133294A1360294B1B68002B09D1274A60
:1049D0007B681360244B1B68012B10D100F0BCFADC
:1049E0000DE0234B1B68002B09D1204B1B68DA6AB2
:1049F0007B68DB6A9A4202D81C4A7B6813601D4BB5
:104A00001B6801331B4A13607B68DB6A01229A40F2
:104A1000194B1B681343184A13607B68DA6A134604
:104A20009B0013449B00154A1A447B6804331946C3
:104A30001046FFF715FAFFF7F5FB0D4B1B68002B2F
:104A40000ED00A4B1B68DA6A7B68DB6A9A4207D28F
:104A50000B4B4FF080521A60BFF34F8FBFF36F8F35
:104A600000BF0837BD4680BD984900209848002007
:104A7000A4490020B4490020A04900209C480020FF
:104A800004ED00E080B584B000AF78600023FB60E7
:104A90007B68002B17D0134B1B68002B0AD04FF0FC
:104AA000500383F31188BFF36F8FBFF34F8FBB6049
:104AB00000BFFEE700F07AF80021786800F00AFBFA
:104AC00000F082F8F860FB68002B07D1064B4FF02E
:104AD00080521A60BFF34F8FBFF36F8F00BF103744
:104AE000BD4680BDC049002004ED00E080B58AB01D
:104AF00004AF0023BB6000237B603A46391D07F1F9
:104B000008031846FBF75CFE39687B68BA680292B6
:104B100001930023009300230A461E491E48FFF715
:104B20001DFE03461D4A13601C4B1B68002B02D060
:104B300001237B6101E000237B617B69012B16D19E
:104B40004FF0500383F31188BFF36F8FBFF34F8F84
:104B50003B6100BF124B4FF0FF321A60114B012234
:104B60001A60114B00221A60FFF78AFA0EE07B6987
:104B7000B3F1FF3F0AD14FF0500383F31188BFF325
:104B80006F8FBFF34F8FFB6000BFFEE700BF18378A
:104B9000BD4680BD946E0008294F0008BC49002026
:104BA000B8490020A44900209C49002080B400AFEF
:104BB000044B1B680133034A136000BFBD465DF818
:104BC000047B7047C049002080B584B000AF00234B
:104BD000FB600023BB60414B1B68002B0AD14FF0E8
:104BE000500383F31188BFF36F8FBFF34F8F3B6088
:104BF00000BFFEE7FFF7E6FA384B1B68013B374A78
:104C00001360364B1B68002B61D1354B1B68002BA2
:104C10005DD02EE0334BDB68DB68FB60FB6818334C
:104C20001846FFF77AF9FB6804331846FFF775F961
:104C3000FB68DB6A01229A402B4B1B6813432A4A0C
:104C40001360FB68DA6A13469B0013449B00274AF3
:104C50001A44FB68043319461046FFF701F9FB6854
:104C6000DA6A234B1B68DB6A9A4202D3214B01228A
:104C70001A601C4B1B68002BCCD1FB68002B01D0A9
:104C800000F008FA1C4B1B687B607B68002B10D07F
:104C900000F036F80346002B02D0164B01221A60B2
:104CA0007B68013B7B607B68002BF1D1124B0022BB
:104CB0001A60104B1B68002B09D00123BB600F4BFF
:104CC0004FF080521A60BFF34F8FBFF36F8FFFF723
:104CD000A9FABB6818461037BD4680BDC049002000
:104CE0009849002058490020A04900209C480020F5
:104CF00098480020AC490020A849002004ED00E0BD
:104D000080B586B000AF00237B614E4B1B68002B43
:104D100040F08E804C4B1B6801333B614A4A3B6933
:104D200013603B69002B20D1484B1B681B68002B8C
:104D30000AD04FF0500383F31188BFF36F8FBFF396
:104D40004F8F3B6000BFFEE7404B1B68FB60404B52
:104D50001B683E4A13603E4AFB6813603D4B1B686C
:104D600001333C4A136000F095F93B4B1B683A69EC
:104D70009A4248D3354B1B681B68002B04D1364B35
:104D80004FF0FF321A603EE0304B1B68DB68DB6897
:104D9000BB60BB685B687B603A697B689A4203D200
:104DA0002D4A7B6813602EE0BB6804331846FFF77A
:104DB000B4F8BB689B6A002B04D0BB681833184654
:104DC000FFF7ABF8BB68DB6A01229A40234B1B68F4
:104DD0001343224A1360BB68DA6A13469B001344EC
:104DE0009B001F4A1A44BB68043319461046FFF75C
:104DF00037F8BB68DA6A1B4B1B68DB6A9A42B9D387
:104E000001237B61B6E7174B1B68DA6A1449134626
:104E10009B0013449B000B441B68012B01D9012309
:104E20007B61114B1B68002B07D001237B6104E0E1
:104E30000E4B1B6801330D4A13607B691846183707
:104E4000BD4680BDC04900209C490020504900203B
:104E500054490020B0490020B8490020A049002052
:104E60009C48002098480020AC490020A849002018
:104E700080B487B000AF274B1B68002B03D0264BB4
:104E800001221A603FE0244B00221A60234B1B686A
:104E9000FB60FB68B3FA83F3FB72FB7AC3F11F0379
:104EA0007B611F497A6913469B0013449B000B44A6
:104EB0001B68002B0AD14FF0500383F31188BFF316
:104EC0006F8FBFF34F8F7B6000BFFEE77A69134699
:104ED0009B0013449B00124A13443B613B695B688F
:104EE0005A683B695A603B695A683B6908339A4281
:104EF00004D13B695B685A683B695A603B695B68EF
:104F0000DB68084A136000BF1C37BD465DF8047BB0
:104F1000704700BFC0490020AC490020A0490020D4
:104F20009C4800209848002080B582B000AF78608F
:104F300000F052F8064B1B68012BF9D9054B4FF0D6
:104F400080521A60BFF34F8FBFF36F8FF0E700BF3F
:104F50009C48002004ED00E080B582B000AF002343
:104F60007B600CE07A6813469B0013449B00124A56
:104F700013441846FEF747FF7B6801337B607B686C
:104F8000062BEFD90D48FEF73EFF0D48FEF73BFF1D
:104F90000C48FEF738FF0C48FEF735FF0B48FEF7CC
:104FA00032FF0B4B054A1A600A4B054A1A6000BFD4
:104FB0000837BD4680BD00BF9C480020284900201E
:104FC0003C490020584900206C49002084490020B9
:104FD000504900205449002080B582B000AF19E04C
:104FE000FFF7F0F8104BDB68DB687B607B6804330D
:104FF0001846FEF792FF0D4B1B68013B0B4A1360EE
:105000000B4B1B68013B0A4A1360FFF70BF97868EA
:1050100000F010F8064B1B68002BE1D100BF00BF69
:105020000837BD4680BD00BF6C490020984900206C
:105030008049002080B584B000AF78607B6893F829
:105040005130002B08D17B681B6B1846FFF768FABC
:105050007868FFF765FA18E07B6893F85130012B08
:1050600003D17868FFF75CFA0FE07B6893F8513062
:10507000022B0AD04FF0500383F31188BFF36F8FD8
:10508000BFF34F8FFB6000BFFEE700BF1037BD4688
:1050900080BD000080B483B000AF0C4B1B681B6860
:1050A000002B04D10A4B4FF0FF321A6008E0074B87
:1050B0001B68DB68DB687B607B685B68044A1360A5
:1050C00000BF0C37BD465DF8047B70475049002097
:1050D000B849002080B584B000AF78603960294BB2
:1050E0001B68FB60284B1B6804331846FEF715FF4E
:1050F0000346002B0BD1244B1B68DB6A012202FA0A
:1051000003F3DA43214B1B681340204A13607B688A
:10511000B3F1FF3F0AD13B68002B07D01A4B1B6845
:10512000043319461A48FEF79BFE26E0FA687B68AE
:105130001344BB60144B1B68BA685A60BA68FB68BA
:105140009A4209D2134B1A680F4B1B680433194655
:105150001046FEF7A9FE10E00F4B1A680A4B1B68B9
:10516000043319461046FEF79FFE0C4B1B68BA68C5
:105170009A4202D2094ABB68136000BF1037BD468D
:1051800080BD00BF9C49002098480020A049002015
:10519000844900205449002050490020B84900208B
:1051A000DFF834D00D480E490E4A002302E0D458EF
:1051B000C4500433C4188C42F9D30B4A0B4C00235F
:1051C00001E013600432A242FBD3FCF74BF800F07D
:1051D00017F8FBF70FFB70470000022000000020CB
:1051E00054080020046F0008540800200C4A0020D6
:1051F000FEE70000014B1868704700BF1000002058
:1052000070B50D4E0D4D761BB61006D0002455F826
:10521000043B01349847A642F9D1094E094D761B4B
:1052200001F0CEFDB61006D0002455F8043B013441
:105230009847A642F9D170BDF86E0008F86E0008D4
:10524000006F0008F86E0008024B0146186800F075
:105250000BB800BF10000020024B0146186800F098
:1052600025BE00BF100000202DE9F04F01F10B0614
:10527000162E83B0044624D8102900F2BA8000F01C
:10528000F5FA102618220220B54F3A44A2F108017F
:1052900053688B4200F0BA805A68D96822F0030242
:1052A0001A449D68E9608D60516841F00101204613
:1052B000516003F1080500F0DFFA284603B0BDE8AD
:1052C000F08F36F0070600F19480B14200F2918031
:1052D00000F0CCFAB6F5FC7FC0F09A81730A00F0BA
:1052E0008F80042B00F26F81B30903F1390003F1C1
:1052F000380CC3009A4F3B44A3F108055B689D42FC
:1053000006D10CE0002980F22781DB689D4206D09F
:105310005A6822F00302911B0F29F3DD60463D69B4
:10532000DFF850C265457CD06A6822F00302931B07
:105330000F2B00F37B81002BC7E904CC80F26C813A
:10534000B2F5007F80F01A81D308796801334FEA03
:10535000521E012202FA0EF20A4357F833E0C5F852
:1053600008E007EBC3010839E9607A6047F8335079
:10537000CEF80C50831001219940914257D8114228
:1053800006D120F003004900114200F10400FAD0D8
:1053900007EBC0094D468646D5F80C80454508D137
:1053A0001DE1002B80F22481D8F80C80454500F0E7
:1053B0001681D8F8042022F00302931B0F2BF0DD96
:1053C0002046D8E9025408EB060146F00106C8F869
:1053D0000460EC60A56043F00104C7E90411C1E971
:1053E00002CC4C6048F8023000F046FA08F108059B
:1053F00002E00C2323600025284603B0BDE8F08FAF
:105400004FF4007340204FF03F0C73E7D3689A428B
:1054100008BF02307FF440AF3D69DFF858C16545F1
:1054200082D17A688310012199409142A7D9BD6841
:105430006B6823F003094E4503D8A9EB06030F2B35
:105440007ADCDFF834B1474BDBF800201B6801320F
:10545000334405EB090A00F0338103F580530F3321
:1054600023F47F6828F00F084146204600F060FAD8
:10547000411C024600F0F380824500F2EE803A4B78
:10548000196841441960084600F04E81DBF80010AD
:10549000019301311BBFA2EB0A0A5044CBF8002054
:1054A000186012F0070B00F01781CBF108010A44D5
:1054B000CBF5805190440831A1EB0801C1F30B0AF0
:1054C00051462046009200F033FA421CDDE90023E9
:1054D00000F04F81801A00EB0A081968BA6048F0A2
:1054E00001005144BD425060196000F02981B9F1BA
:1054F0000F0F40F227816868A9F10C0C2CF0070C03
:1055000000F0010040EA0C0068604FF0050E05EB6A
:105510000C00BCF10F0FC0E901EE00F232815068BF
:105520001546124B1A688A4238BF1960104B1A6828
:105530008A4238BF196094E0AA1943F0010346F08B
:1055400001066E602046BA60536000F095F9083598
:10555000284603B0BDE8F08FD9681A44A1E600BF21
:1055600040040020F4490020C4490020EC490020F8
:10557000F04900204804002048080020B2F5206FC0
:105580004FEA522363D3142B00F2B78003F15C017E
:10559000C9005B3307EB010E7958AEF1080E8E455A
:1055A00000F091804B6823F00303934202D989688D
:1055B0008E45F7D1D1F80CE07A68C5E9021ECEF825
:1055C0000850CD60D6E6142B59D9542B00F29D809B
:1055D000330B03F16F0003F16E0CC3008AE60EF18A
:1055E000010E1EF0030F05F108057FF4D5AE51E062
:1055F000424445465368D8F80C1043F00103536009
:1056000055F8083F2046D9608B6000F035F9F3E685
:10561000F00806F1080237E62A442046536843F0B2
:1056200001035360083500F027F9E5E6A919204683
:1056300046F0010643F001046E60C7E90411C1E9B8
:1056400002CC4C60AB5000F017F90835D4E6930952
:1056500003F13901C90038339CE7BD425FD0BD6812
:10566000686820F003084645A8EB060302D80F2B14
:105670003FF762AF204600F0FFF80025BCE603F1DB
:105680005C0003F15B0CC30034E659F808394B4564
:1056900040F0968010F0030F00F1FF30F5D17B68E9
:1056A00023EA01037B60490099423FF6C0AE19B975
:1056B000BDE649000EF1040E1942FAD0704667E6C5
:1056C00003F11008D0E69A104FF001087B6808FA41
:1056D00002F21A437A6070E702EB08014942C1F313
:1056E0000B0A51462046009200F022F9431CDDE9E6
:1056F00000237FF4EFAEDA46EFE6542B25D8130BE8
:1057000003F16F01C9006E3344E7B3F5AA7F25D8D2
:10571000F30B03F1780003F1770CC300EAE5294BA2
:10572000186840441860B1E6CAF30B0CBCF1000FD6
:105730007FF4ACAEBD68C84448F001006860F0E694
:105740001546EEE60123536094E7B3F5AA7F23D80C
:10575000D30B03F17801C90077331BE740F25452B1
:10576000934223D8B30C03F17D0003F17C0CC300FA
:10577000C0E5ABF1080BD844A8EB02084FF0000AD3
:10578000ABE605F108012046009300F08FFBBD68F1
:10579000009B68681968C4E640F254518B420BD8EC
:1057A000930C03F17D01C9007C33F3E64FF47E7363
:1057B0007F204FF07E0C9DE54FF47E717E23E9E65D
:1057C0007B6870E7C4490020830730B548D0541E79
:1057D000002A3FD0CAB2034601E0013C3AD303F8A5
:1057E000012B9D07F9D1032C2DD9CDB245EA052512
:1057F0000F2C45EA054536D9A4F1100222F00F0C12
:1058000003F1200EE6444FEA121C03F1100242E9B4
:10581000045542E9025510327245F8D10CF10102EB
:1058200014F00C0F03EB021204F00F0C13D0ACF1C8
:10583000040323F003030433134442F8045B93424C
:10584000FBD10CF003042CB1CAB21C4403F8012BA9
:105850009C42FBD130BD64461346002CF4D1F9E7DD
:1058600003461446BFE71A46A446E0E7014800F0A5
:10587000C3BD00BFFC490020014800F0BFBD00BF10
:10588000FC49002070B5054688B008460C46FAF77A
:10589000D7FE224EAA6B059001214318CDE906617F
:1058A00004A8022104940393AC680190029122B3EE
:1058B000636E13F0010FB4F90C309AB201D1980560
:1058C00025D5910406D4626E43F4005322F40052AD
:1058D000A3816266284601AA214600F0EDFB636EB3
:1058E000002814BF4FF0FF350A25DA0702D4A38938
:1058F0009B0506D5284608B070BD284600F0DEF9A5
:10590000D6E7A06D00F07AFD284608B070BDA06D06
:1059100000F072FDB4F90C309AB2D2E7EC6E0008D8
:10592000024B01461868FFF7ADBF00BF1000002012
:1059300038B5074D0022044608462A60FBF766FC8E
:10594000431C00D038BD2B68002BFBD0236038BD32
:10595000084A00202DE9F043694CD4F8008083B058
:1059600004460E4617461D46B8F1000F03D0D8F87E
:105970003830002B77D0022F05D0012F00F2AC80F9
:10598000002DC0F2A980636EDA0752D52146404649
:1059900000F060F9216B41B104F14003994202D05B
:1059A000404600F083FA00232363B4F90CC00023BF
:1059B0001CF0800FA361636064D12CF44A6C2CF05E
:1059C000030C022FA4F80CC06AD001AB6A46214632
:1059D000404600F085FDA3891843A081002D2FD0FB
:1059E000002E2ED0D8F83830002B38D0009B2660FF
:1059F000AB42B4F90C301CBF43F40063A381012F08
:105A000004BF43F00103A3819AB213F00803C4E971
:105A100004652CD0D1075DD56D42A561656E00236C
:105A200015F00105A36027D00025284603B0BDE886
:105A3000F083A3899B05A9D4A06D00F0DDFCA5E748
:105A4000009D2846FFF700FC0646002847D0A389A2
:105A500043F08003A381D8F83830002BC6D14046EC
:105A600000F02CF9C2E7404600F028F983E7A36074
:105A7000656E15F00105D7D1930524D5284603B0EE
:105A8000BDE8F0832169404600F010FAB4F90CC07B
:105A90002CF44A6C2CF0030C022FA4F80CC094D107
:105AA0000025002204F14303A2600122C4E904326C
:105AB0002360636E4CF0020CD807A4F80CC0DDD450
:105AC0001CF4007FDAD1A06D00F098FC284603B0EA
:105AD000BDE8F083A560CBE74FF0FF35CEE7DDF8FA
:105AE0000090A94504D04846FFF7AEFB064620B912
:105AF000B4F90CC04FF0FF35D3E74D46A7E700BF20
:105B000010000020024B13B1024800F005B87047A6
